:020000021000EC
:10000000C0260020392F0100499F01000D2F01005B
:100010000D2F01000D2F01000D2F01000000000029
:10002000000000000000000000000000152C01008E
:100030000D2F010000000000C12B01000D2F010059
:10004000C52C0100C52C0100C52C0100C52C0100E8
:10005000C52C0100C52C0100C52C0100C52C0100D8
:10006000C52C0100C52C0100C52C0100C52C0100C8
:10007000C52C0100C52C0100C52C0100C52C0100B8
:10008000C52C0100C52C0100C52C0100C52C0100A8
:10009000C52C0100C52C0100C52C0100C52C010098
:1000A000C52C0100C52C0100C52C0100C52C010088
:1000B000C52C0100C52C0100C52C0100C52C010078
:1000C000C52C0100C52C0100C52C0100C52C010068
:1000D000C52C0100C52C0100C52C0100C52C010058
:1000E000C52C0100C52C0100C52C0100C52C010048
:1000F000C52C0100C52C0100C52C0100C52C010038
:1001000081F0004102E000BF83F0004330B54FEAC8
:1001100041044FEA430594EA050F08BF90EA020F35
:100120001FBF54EA000C55EA020C7FEA645C7FEAC8
:10013000655C00F0E2804FEA5454D4EB5555B8BFEB
:100140006D420CDD2C4480EA020281EA030382EA5C
:10015000000083EA010180EA020281EA0303362DEE
:1001600088BF30BD11F0004F4FEA01314FF4801CC1
:100170004CEA113102D0404261EB410113F0004FD3
:100180004FEA03334CEA133302D0524263EB43038A
:1001900094EA050F00F0A780A4F10104D5F1200E28
:1001A0000DDB02FA0EFC22FA05F2801841F1000183
:1001B00003FA0EF2801843FA05F359410EE0A5F157
:1001C00020050EF1200E012A03FA0EFC28BF4CF088
:1001D000020C43FA05F3C01851EBE37101F000453E
:1001E00007D54FF0000EDCF1000C7EEB00006EEB4B
:1001F0000101B1F5801F1BD3B1F5001F0CD34908D5
:100200005FEA30004FEA3C0C04F101044FEA44522B
:1002100012F5800F80F09A80BCF1004F08BF5FEAB2
:10022000500C50F1000041EB045141EA050130BD92
:100230005FEA4C0C404141EB0101013C28BFB1F5A4
:10024000801FE9D291F0000F04BF01460020B1FAEF
:1002500081F308BF2033A3F10B03B3F120020CDAC2
:100260000C3208DD02F1140CC2F10C0201FA0CF0A0
:1002700021FA02F10CE002F11402D8BFC2F1200C05
:1002800001FA02F120FA0CFCDCBF41EA0C019040BB
:10029000E41AA2BF01EB0451294330BD6FEA040404
:1002A0001F3C1CDA0C340EDC04F11404C4F12002EF
:1002B00020FA04F001FA02F340EA030021FA04F301
:1002C00045EA030130BDC4F10C04C4F1200220FA58
:1002D00002F001FA04F340EA0300294630BD21FA96
:1002E00004F0294630BD94F0000F83F4801306BF5C
:1002F00081F480110134013D4EE77FEA645C18BF50
:100300007FEA655C29D094EA050F08BF90EA020FE6
:1003100005D054EA000C04BF1946104630BD91EADE
:10032000030F1EBF0021002030BD5FEA545C05D1E1
:100330004000494128BF41F0004130BD14F5800420
:100340003CBF01F5801130BD01F0004545F0FE4194
:1003500041F470014FF0000030BD7FEA645C1ABFC9
:10036000194610467FEA655C1CBF0B46024650EA00
:10037000013406BF52EA033591EA030F41F400212C
:1003800030BD00BF90F0000F04BF0021704730B5B2
:100390004FF4806404F132044FF000054FF0000187
:1003A00050E700BF90F0000F04BF0021704730B548
:1003B0004FF4806404F1320410F0004548BF40421D
:1003C0004FF000013EE700BF42004FEAE2014FEA72
:1003D00031014FEA02701FBF12F07F4393F07F4F4D
:1003E00081F06051704732F07F4208BF704793F050
:1003F0007F4F04BF41F40021704730B54FF4607463
:1004000001F0004521F000411CE700BF50EA010265
:1004100008BF704730B54FF000050AE050EA01020E
:1004200008BF704730B511F0004502D5404261EB7E
:1004300041014FF4806404F132045FEA915C3FF4BF
:10044000D8AE4FF003025FEADC0C18BF03325FEA5C
:10045000DC0C18BF033202EBDC02C2F1200300FA0D
:1004600003FC20FA02F001FA03FE40EA0E0021FA32
:1004700002F11444BDE600BF70B54FF0FF0C4CF420
:10048000E06C1CEA11541DBF1CEA135594EA0C0FD2
:1004900095EA0C0F00F0DEF82C4481EA030621EA0D
:1004A0004C5123EA4C5350EA013518BF52EA033548
:1004B00041F4801143F4801338D0A0FB02CE4FF0FA
:1004C0000005E1FB02E506F00042E0FB03E54FF02A
:1004D0000006E1FB03569CF0000F18BF4EF0010E22
:1004E000A4F1FF04B6F5007F64F5407404D25FEA1E
:1004F0004E0E6D4146EB060642EAC62141EA5551D1
:100500004FEAC52040EA5E504FEACE2EB4F1FD0C12
:1005100088BFBCF5E06F1ED8BEF1004F08BF5FEA90
:10052000500E50F1000041EB045170BD06F0004642
:1005300046EA010140EA020081EA0301B4EB5C04EF
:10054000C2BFD4EB0C0541EA045170BD41F48011E7
:100550004FF0000E013C00F3AB8014F1360FDEBF0C
:10056000002001F0004170BDC4F10004203C35DAE8
:100570000C341BDC04F11404C4F1200500FA05F36B
:1005800020FA04F001FA05F240EA020001F000420C
:1005900021F0004110EBD37021FA04F642EB060182
:1005A0005EEA430E08BF20EAD37070BDC4F10C04AC
:1005B000C4F1200500FA04F320FA05F001FA04F270
:1005C00040EA020001F0004110EBD37041F100015C
:1005D0005EEA430E08BF20EAD37070BDC4F1200567
:1005E00000FA05F24EEA020E20FA04F301FA05F2CF
:1005F00043EA020321FA04F001F0004121FA04F277
:1006000020EA020000EBD3705EEA430E08BF20EA46
:10061000D37070BD94F0000F0FD101F00046400080
:1006200041EB010111F4801F08BF013CF7D041EA02
:10063000060195F0000F18BF704703F00046520006
:1006400043EB030313F4801F08BF013DF7D043EAD7
:100650000603704794EA0C0F0CEA135518BF95EA8D
:100660000C0F0CD050EA410618BF52EA4306D1D114
:1006700081EA030101F000414FF0000070BD50EA33
:10068000410606BF1046194652EA430619D094EABD
:100690000C0F02D150EA013613D195EA0C0F05D1A7
:1006A00052EA03361CBF104619460AD181EA0301FB
:1006B00001F0004141F0FE4141F470014FF00000B3
:1006C00070BD41F0FE4141F4780170BD70B54FF04E
:1006D000FF0C4CF4E06C1CEA11541DBF1CEA1355CE
:1006E00094EA0C0F95EA0C0F00F0A7F8A4EB0504B0
:1006F00081EA030E52EA03354FEA013100F08880A7
:100700004FEA03334FF0805545EA131343EA12636F
:100710004FEA022245EA111545EA10654FEA002624
:100720000EF000419D4208BF964244F1FD0404F5DD
:10073000407402D25B084FEA3202B61A65EB030539
:100740005B084FEA32024FF480104FF4002CB6EBF6
:10075000020E75EB030E22BFB61A754640EA0C0076
:100760005B084FEA3202B6EB020E75EB030E22BFB6
:10077000B61A754640EA5C005B084FEA3202B6EBF7
:10078000020E75EB030E22BFB61A754640EA9C00B6
:100790005B084FEA3202B6EB020E75EB030E22BF86
:1007A000B61A754640EADC0055EA060E18D04FEA44
:1007B000051545EA16754FEA06164FEAC30343EAE4
:1007C00052734FEAC2025FEA1C1CC0D111F4801FB1
:1007D0000BD141EA00014FF000004FF0004CB6E7AA
:1007E00011F4801F04BF01430020B4F1FD0C88BF49
:1007F000BCF5E06F3FF6AFAEB5EB030C04BFB6EB54
:10080000020C5FEA500C50F1000041EB045170BD46
:100810000EF0004E4EEA113114EB5C04C2BFD4EB73
:100820000C0541EA045170BD41F480114FF0000EF7
:10083000013C90E645EA060E8DE60CEA135594EA73
:100840000C0F08BF95EA0C0F3FF43BAF94EA0C0F76
:100850000AD150EA01347FF434AF95EA0C0F7FF4EB
:1008600025AF104619462CE795EA0C0F06D152EA3F
:1008700003353FF4FDAE1046194622E750EA410623
:1008800018BF52EA43067FF4C5AE50EA41047FF434
:100890000DAF52EA43057FF4EBAE12E753B94AB904
:1008A000002908BF00281CBF4FF0FF314FF0FF3078
:1008B00000F00CB8ADF1080C6DE904CE00F008F8BA
:1008C000DDF804E0DDE9022304B07047704700BFA3
:1008D0002DE9F04F07468C460846099E15463C46D2
:1008E0001946002B40F0C6808242B2FA82F746D900
:1008F0004FB1C7F1200E24FA0EFE00FA07F3BD40F7
:100900004EEA030CBC404FEA15481FFA85FEBCFBBB
:10091000F8F9220C08FB19C309FB0EFA42EA03435B
:100920009A4528D9EB1809F1FF3004D29A4502D92B
:10093000A9F102002B44A3EB0A03A4B2B3FBF8F223
:1009400008FB123302FB0EFE44EA0344A64514D909
:100950002C1902F1FF3303D2A64501D9931E2C4472
:10096000A4EB0E0443EA00401EB1FC4000233460B7
:100970007360BDE8F08F4846DDE71346F0E702B943
:10098000FFDE87BB831A01214FEA154EAAB2B3FBE3
:10099000FEFC200C0EFB1C330CFB02F840EA034368
:1009A000984563D9EB180CF1FF3004D2984502D971
:1009B000ACF102002B44A3EB0803A4B2B3FBFEFC92
:1009C0000EFB1C330CFB02F244EA0344A2424FD953
:1009D0002C190CF1FF3304D2A24202D9ACF102036C
:1009E0002C44A41ABEE7C7F1200C20FA0CF800FA38
:1009F00007F324FA0CFCBD404CEA03024FEA154E03
:100A0000ABB2B8FBFEFC110C0EFB1C800CFB03F917
:100A100041EA0040814504FA07F423D928180CF173
:100A2000FF3104D2814502D9ACF102012844A0EB88
:100A3000090092B2B0FBFEFC0EFB1C000CFB03F89D
:100A400042EA004398450FD9EB180CF1FF3204D26B
:100A5000984502D9ACF102022B44A3EB080342EA09
:100A6000014191E76146E2E76246F6E76046A2E7A8
:100A70006346B6E7834205D90EB1C6E9007000218E
:100A8000084676E7B3FA83F181B9834201D3BA42CB
:100A90000AD8BC1A60EB030301209C46002E68D0E4
:100AA000C6E9004C002164E70846F7E7C1F1200CD5
:100AB0008B4022FA0CF41C4302FA01F500FA01F310
:100AC00027FA0CF220FA0CFB4FEA14491343BBFB44
:100AD000F9F81FFA84FE09FB18BB1A0C08FB0EFA82
:100AE00042EA0B42924507FA01F73ED9A21808F1F3
:100AF000FF3004D2924502D9A8F102002244A2EBB1
:100B00000A029BB2B2FBF9F809FB182208FB0EFEA1
:100B100043EA024296452AD9A21808F1FF3304D2CB
:100B2000964502D9A8F10203224443EA0040A0FB03
:100B30000593A2EB0E029A42CE46984602D306D106
:100B40004F4504D2B9EB050E63EB0408013886B1BA
:100B5000B7EB0E0362EB080707FA0CFCCB404CEA3C
:100B60000303CF40C6E900379CE74046C7E743464A
:100B7000DBE73146FDE600002DE9F347284807F0A2
:100B800055FA044690B124A7D7E90067DFF894A08E
:100B9000254DA3683921DB6820469847014658B1A6
:100BA000224808F09AFC02B0BDE8F087204802B065
:100BB000BDE8F04708F091BCA3686A461B690F21A5
:100BC000204698470099504608F087FCA3686A467B
:100BD0001B691A21204698470198FFF7E3FB32462C
:100BE0003B46FFF773FD804600988946FFF7DAFB26
:100BF00002460B4640464946FFF788FA02460B4636
:100C0000284608F06AFC00214FF4004008F07CF907
:100C1000BFE700BFAFF300800000000080842E41DA
:100C2000F0DA010039DB010045DB010016DB0100D1
:100C3000F8DA0100024883684FF400515B691847F5
:100C4000D8D4010013B50020019001F099F810B933
:100C5000084C019B0BB102B010BDA3681B6D1BB10A
:100C600001AA042120469847002140F6CD4008F013
:100C70004BF9EEE708D5010013B5134C20460CF0F4
:100C800088F8F8B12269A168136823F4005313604F
:100C900020460B684FF420220D219847FFF7D2FF22
:100CA0004FF400420023CDE900230848002200232E
:100CB00008F046FB064808F010FC02B0BDE8104002
:100CC000FFF75ABF02B010BDD8D40100580500206C
:100CD00057DB01000B6801330B60014B1B681847A1
:100CE00000000020014B1860704700BF000000208A
:100CF00007B50B46002102460191034801A900F007
:100D0000E5F803B05DF804FBD50C01002DE9F84FC0
:100D1000B0F8189019F00808044693460DD0012940
:100D20000CBF49F0100949F02009A0F818908BF386
:100D30001188BFF36F8FBDE8F88F09F0070902290A
:100D400007D1204608F0F0FB0028F0D00128238BC3
:100D50004ED16769218B002F15DA256821F0070134
:100D6000C4E9008841F0010121830026218B01F0B4
:100D7000070ACA4502D0A368002B5AD10DB9002E2C
:100D800071D0002356E001F007035A1F012A1ED834
:100D900021F00701062B256889B2C4E900880AD131
:100DA0003DB1638B2A46126801339BB2002AFAD107
:100DB000638341F002012183204608F0B5FB06461B
:100DC0000028D3D0238B43F020032383CDE7042BCB
:100DD0000CD121F0070189B22183204608F0A4FB41
:100DE00005460028C1D041F0200121830025BCE741
:100DF000032809D1226923F00703166843F006038C
:100E0000238300252F46B1E7042806D1226923F069
:100E10000703566843F00403F2E7052806D1226968
:100E200023F00703966843F00503E9E700252E4603
:100E3000E8E7012341F0080121838BF31188BFF318
:100E40006F8FFBB985BB16B11F492046B0474FF0E5
:100E50002003EFF3118B83F31288BFF36F8F238B83
:100E600023F008032383238BDA0625D523F0100310
:100E700023830121B4F8189009F0070900297FF4B1
:100E80005EAF54E7A1680029DCD0D1F80090D1F81A
:100E900004B03B4652462046D847B9F1000FD1D0A6
:100EA0004946D9F80090F2E729463B46524620468B
:100EB0002D6808F055FBC5E713F020011EBF23F095
:100EC000200323830221D5E78D9501002DE9F04F02
:100ED00091B08B46029092461C4600259AF800007D
:100EE00008B928465FE325280AF1010707D0029BCD
:100EF000594698470028C0F25683013512E218225D
:100F000000210AA809F058F89AF80130252B78D06A
:100F100000221046964694461646394617F8013B7D
:100F20002B2B00F09D8000F29480202B00F09B8002
:100F3000232B00F09B802EB19DF8306046F0040614
:100F40008DF83060BCF1000F05D09DF8306046F0A0
:100F500008068DF83060BEF1000F05D09DF83060B6
:100F600046F010068DF8306028B19DF8300040F052
:100F700020008DF830002AB19DF8302042F0400268
:100F80008DF830209DF8302002F04400442803D131
:100F90006FF386128DF830209DF830202A2B42F016
:100FA00080028DF830207BD19DF8312042F0010283
:100FB0004B1C8DF831201A782E2A9DF831200CBF59
:100FC0000121002161F341028DF8312074D15A785A
:100FD0002A2A6AD0013300210A26184610F8012B6C
:100FE000A2F13007092F40F28E809DF830200E913B
:100FF000C2F3400040EAD17161F341028DF8302024
:101000005AE00AF102078DF833309DF83130D907E4
:1010100040F1498154F8049BB9F1000F07DA9DF8BB
:10102000302042F004028DF83020C9F100095A073F
:1010300040F1428154F8048BB8F1000F80F24181F5
:101040009DF831306FF341038DF831304FF0FF38A8
:1010500037E12D2B0CD0302B7FF46DAF01225CE7F4
:101060004FF0010C59E74FF0010E56E7012054E70D
:10107000012652E70CFB0202303A33461E4616F8B0
:10108000010BA0F13007092FF4D9994293D09DF8B4
:1010900030100D92D20F62F341018DF830108AE7C3
:1010A0000B4600224FF00A0CE8E79DF8312042F091
:1010B00004028DF8312002331F4617F8012B6C2AE9
:1010C00041D025D8682A2BD06A2A46D04C2A4CD049
:1010D0001F4617F8012B9DF831308DF83320782A00
:1010E00000F2D980572A4DD8412A03D0453A022A26
:1010F00000F2D1809DF83230042262F302038DF8B1
:10110000323001239EE006FB01213039034664E7BB
:10111000742A26D07A2ADBD19DF8313006220DE0E0
:101120005A78682A9DF8312006D1012161F3C60260
:101130008DF831209F1CCCE71346022262F3C603D0
:101140008DF83130C5E75A786C2A9DF8312001D1ED
:101150000421EBE713460322F0E79DF83130052226
:10116000ECE79DF831300722E8E7BDF8303023F492
:10117000F04323F0020343F4804343F00203ADF84D
:101180003030A6E7A2F15801202900F2848001A0A6
:1011900050F821F059120100971201009712010036
:1011A0009712010097120100971201009712010097
:1011B0009712010097120100F5100100971201002B
:1011C0005912010019120100F5100100F51001007B
:1011D000F510010097120100191201009712010089
:1011E000971201009712010097120100611201008D
:1011F000591201007D12010097120100971201009F
:101200007D1201009712010059120100971201008E
:1012100097120100591201009DF83210012003F0CD
:10122000780360F30201402B8DF8321002BF9DF865
:10123000301041F001018DF83010632A31D1003BAC
:1012400018BF01239DF83020C2F340010B4363F324
:1012500041028DF83020D8E69DF832100220DEE7FA
:101260009DF8322003F07803A3F14000032161F3DD
:10127000020243428DF832204341E3E79DF83220D9
:10128000032113F0780F61F302028DF8322014BFAE
:1012900001230023D6E79DF8303043F001038DF899
:1012A00030300023CEE79DF93020002AB4BFDDF8AE
:1012B00034904FF0FF39BAE69B077FF5C7AEDDF8F3
:1012C00038809DF831100023CDE90D339DF8323080
:1012D00003F00703012BC1F3C30138D1CB1E042B4C
:1012E00022D8DFE803F003090921210054F8043B68
:1012F000DA17CDE90A3206E0073424F00704F4E8EF
:101300000223CDE90A239DF8303013F0030656D0AE
:1013100002983B465246594608F034FC0028C0F279
:1013200042810544BA46D9E554F8043B01294FEA05
:10133000E372CDE90A3205D19DF828300A930023E3
:101340000B93E0E70229DED1BDF92830D0E7022B6C
:1013500023D1CB1E042B13D8DFE803F0030A0A12B3
:10136000120022680A920023201D0B930446CAE74C
:10137000E01D20F00700F0E80223CDE90A23F5E79D
:1013800054F8043B0A9301294FF000030B93D3D088
:101390000229B8D1BDF82830D0E7042B09D1E31DCC
:1013A00023F0070303F10804D3E90023CDE90A235E
:1013B000A9E7032B04BF54F8043B0A93A3E79DF865
:1013C00033007828AED8622822D825283FF48FAD84
:1013D0005828A7D10DF126030093DDE90A0104ABDB
:1013E0000CAA08F089FB8246B8F1000F0DF1260027
:1013F0000CDB9DF83020A0EB0A036FF386129845B2
:101400008DF8302002D9A8EB03030D9380463DE010
:101410006338152886D801A252F820F09D140100E7
:1014200001150100251301002513010025130100FA
:1014300025130100011501002513010025130100EA
:1014400025130100251301005B150100291501007A
:101450002D1501002513010025130100751401004D
:101460002513010029150100251301002513010092
:1014700029150100B8F1000FDDF828A00ADB41466C
:10148000504608F079FD0AEB00080026BAF1000F7B
:101490000CD147E7504608F068FDF4E70A9B8DF849
:1014A000103000260DF1100A0DF11108A8EB0A0307
:1014B00006B101339DF83220D00668D502335206BA
:1014C0000D9948BF0E9A0B4448BF9B18B9F1000F05
:1014D00076DD9DF83020A9EB0309C2F38003039366
:1014E00053076DD4500661D546B1029B594630462C
:1014F0009847002857DB039B01351E46302356E0F2
:101500001E070FD413F0100618BF2026DDE90A23AA
:10151000002BBFF65FAF524263EB4303CDE90A23D2
:101520002D2657E72B26F1E7002653E70A9840B30C
:101530000DF1260300930CAA04AB002108F0DCFA9D
:10154000BDF8323003F0EF0343F4F04343F01003EF
:101550008246ADF83230002646E70A9B07293FF65F
:10156000E1AEDFE801F00C04060C08080C0C1D705D
:10157000D8E61D80D6E6EA17C3E90052D2E61D6020
:10158000D0E6DFF8C8A006460AF105088EE7110785
:1015900048BF013393E7184603935946029B984787
:1015A0000028039B04DA11B0BDE8F08F20234D44DE
:1015B0004A46002AA5EB090109F1FF39EBDC0D468B
:1015C00036B1029B5946304698470028EBDB01357F
:1015D0009DF83230D90601D41A0706D5029B594628
:1015E000302098470028DEDB01359DF83230DB06DD
:1015F00007D59DF83300029B594698470028D2DB57
:1016000001350D9E2E44731B002B16DC02984346B9
:101610005246594608F0B6FA0028C4DB0544A944EE
:10162000A9EB0503002B7FF77DAE029B59462020D6
:1016300098470028B7DB0135F2E7029B5946302076
:1016400098470028AFDB0135DDE700BF62DB010012
:101650000C4BF0B45F6A0C4E0C4BB34203D36FF0EB
:101660008500F0BC70475D68BD4209D31C693CB180
:1016700095F802C00579AC4502D12346F0BC184765
:101680002433EAE7000A00209C06002078060020A8
:101690002DE9F047134CDFF85080DFF850900546F5
:1016A0000E461746444503D36FF08500BDE8F0872A
:1016B0006268D9F824309A4212D3A36983B1907832
:1016C0002979884205D13A4631462846BDE8F04797
:1016D00018475279012A03D13A463146284698479D
:1016E0002434DFE7780600209C060020000A002052
:1016F0002DE9F0410B4CDFF8308005460E461746C9
:10170000444502D36FF0850009E063690BB92434C6
:10171000F6E73A463146284698470028F7D1BDE813
:10172000F08100BF780600209C06002007B5837872
:101730008DF800300379427943EA0223ADF8023094
:10174000C378684603F003038DF8043002F0CEF846
:1017500010F1780F04D018B1002003B05DF804FB3D
:101760009DF8000002F048F910F1780F01D0002830
:10177000F2D1024B012083F8B900EEE7000A002005
:1017800002480822002108F017BC00BFBB0A002055
:1017900070B50B4B0B4CA34201D3002070BD196AEE
:1017A0001E7F00220439D5B2AE4201D82433F2E7BD
:1017B000013211F832508542F5D10120EEE700BF29
:1017C000780600209C060020094808B50378C3F37A
:1017D00041130A3350F823303BB100F1080200F105
:1017E00010019847C043C00F08BD1846FCE700BF72
:1017F000000A002004282DE9F047DFF8888004461D
:101800000E460ED1FFF7BCFFDFF87C9099F8B93097
:101810005BB100F0B3FD042C01D0012C05D11B4DB0
:1018200016E00528F0D00128EED0184D45451ED30E
:10183000154B1B6A1BB331462046BDE8F0471847DD
:10184000D5F820A000272A7FFBB29A4203D824357E
:101850004545F5D307E00AEBC3030137187902F0D9
:10186000F5F80028EFDA002389F8B930DDE7EB68F6
:101870001BB132462146284698472435D6E7BDE8B5
:10188000F08700BF9C060020000A00207806002098
:1018900073B5C4B263060D468DF8074007D02046E5
:1018A000FFF776FF88B10F4B93F8BA0068B10D4E81
:1018B000204665B102F03CF8F3690BB9012004E061
:1018C00008200DF107019847284602B070BD02F0CC
:1018D00057F8F369002BF1D00DF107010920984763
:1018E000ECE700BF000A00202DE9F047A84EB369DD
:1018F00005460F46904663B9287800F01F0001287E
:1019000000F0A680022800F00E8138B16FF01500BB
:1019100095E098470028EFD1002090E095F900204D
:101920006B78002A31DA062BD8F8002010D0082B6B
:1019300025D0002BEAD101215370117096F8C31005
:10194000002918BF022343F00103137002231AE099
:101950006B881A0A111F0129D8D9072AD6D8D9B2FB
:10196000736A1C78002CD1D05D78954203D18142F6
:1019700000F0128101302344F3E71B7812E196F85E
:10198000BA30137001233B6059E0013B082BBDD8EE
:1019900001A252F823F000BF311A01000D19010015
:1019A000431A01000D190100BD1901000D190100B4
:1019B0000D1901000D190100C9190100A87801F0E5
:1019C00083FF0028A8D0A1E76C8844B14FF0FF083E
:1019D000776A0020C1463C786CB9002896D0FFF7A2
:1019E000CFFE6B8886F8BA30F369002B94D0694932
:1019F0000320984790E77B78042B0CD0052B0DD063
:101A0000022B05D197F805806A88424508BF01205E
:101A10003B781F44DFE797F80390F9E76B8843456D
:101A2000F6D1B9F1000FF3D13846FFF77FFEEFE7AB
:101A30006B88012B7FF46AAF002086F8C300BDE8F5
:101A4000F0876B88012B7FF461AF86F8C33063E7C2
:101A500096F8BA30002B3FF459AF746AB5F804C059
:101A6000287923461A78002A3FF450AF5978022982
:101A700004D193F804E0864500F296801344F1E720
:101A8000107050703960DAE70C449BE00B287FF44B
:101A90003DAF00274FF0FF0AD046B94606E0637815
:101AA000042B0FD0052B22D023781C442378002B45
:101AB000F5D1F36913B1494607209847002F7FF409
:101AC0002BAF23E794F802A0AA8894F803809245EC
:101AD0005346E9D1698888451FFA88F2E4D1072B7B
:101AE0001ED83344A14683F8BB200127DCE7AB882E
:101AF0005345D9D1AB7843450DD0A778384600F08F
:101B00001FFC384601F0A2FF10F1780FEDD0B0FABB
:101B100080F77F09C8E72046FFF708FE0746C3E7BE
:101B2000A1460027C0E795F900206B78002A19DA52
:101B3000002B7FF4EBAE2C7963060AD02046FFF72A
:101B400027FE00283FF4E2AE96F8BA30002B3FF4AF
:101B5000DDAED8F800502046294601F031FF0020C4
:101B60006870F3E6012B08D0032B7FF4CFAE6B88AF
:101B7000002B7FF4CBAE012103E0698800297FF4BC
:101B8000C5AEA888FFF784FE00287FF4C5AEBDE689
:101B9000000A0020BA0A0020022AC8F800307FF4A8
:101BA000ECAE5B883B60B7E695F900306878002BB7
:101BB000BFF66CAFD8F8002000283FF461AF0A28C8
:101BC0007FF4A4AE217800293FF4A0AE6378042B03
:101BD0007FF45AAFA3789C457FF456AF072B96BF8E
:101BE0009B19002393F8BB3013700123DAE700BF81
:101BF00013B5134C237DCBB9E268A168019201AB08
:101C0000802008F07BF8019AA3681344A360E3687E
:101C10009B1AE36043B93AB12369E2889A4203DD33
:101C20009B0601D10123237502B010BD00231A4683
:101C300019468020237502B0BDE8104001F02CBF8A
:101C4000000A002030B585B0002302460D460193FE
:101C500000285FD100293CD108220B460DEB020180
:101C600008F0F7F9002804DA802001F061FE05B0E1
:101C700030BD2D4C9DF809309DF808206370BDF8EB
:101C80000A306380BDF80C302270A38004F1380163
:101C9000BDF80E30E3801206C4E90355A160257536
:101CA0000AD4802B04D9802001F042FE0020DCE71A
:101CB00013B1C4E90333DAE7FFF786FD0028D3D078
:101CC000E28823699A42D4BFE260E360FFF790FFA5
:101CD000CDE7154CD4E90215002D01AB04DC08F06A
:101CE000B8F90028C3DABFE72A4608F0B2F900289D
:101CF000D9DB0199A268E3680A445B1AA260E36039
:101D0000002BB4D104F13803A360FFF75DFD002878
:101D1000DCD1A9E78028AAD1034BDA68002AD5D103
:101D20001B7D002BD2D1A2E7000A0020054B064AFA
:101D30009A62064ADA62064A1A63064A58629A6149
:101D400000207047000A0020E91801005116010028
:101D5000F116010091160100084B10B593F8B84038
:101D600034B900F0A3F930B1FFF7E0FF204610BD11
:101D70006FF07700FBE74FF0FF30F8E7000A002034
:101D80002DE9F3410446354D35484FF0FF324FF011
:101D9000FF3306F063FB95F8B860002E5BD1314845
:101DA0002C62E86101F08EFF01F050FD041E36DB6D
:101DB00000F00CFB041E32DB40236846ADF8023015
:101DC0008DF804608DF8006001F090FD041E26DBA4
:101DD000802768468DF8007001F088FD041E1EDB28
:101DE0002149304601F05AFF041E18DB1E493846CF
:101DF00001F054FF041E12DB1C4CDFF874804445D4
:101E000014D3002001F0F8FD041E08DB802001F04F
:101E1000F3FD041E03DB012385F8B83000241048CD
:101E200006F094FB204602B0BDE8F081276A002648
:101E3000227FF3B29A4201D82434E0E707EBC302D1
:101E400057F83310107901F029FF01360028EFD040
:101E50004FF0FF34E3E76FF07704E0E7000A00207B
:101E6000AC050020F5170100451C01007806002094
:101E70009C06002030B51F4B8BB005AA03F110055E
:101E800018685968144603C40833AB422246F7D198
:101E90001B7823701022002101A808F08DF812226F
:101EA0000021154808F088F8102101A808F01BFD52
:101EB00000281BDD0828B8BF0820083801AB0E4AEF
:101EC0001844002110F8013B0AAC04EB131403F092
:101ED0000F0314F8144C14700AAC2344013113F8A6
:101EE000143C5370082902F10202EBD102480BB0F6
:101EF00030BD00BF68DB0100C81900202DE9F04F9C
:101F0000044685B000254FF0011BA9462E46AA467F
:101F1000207820B9614B02349C421FD0F2E76378ED
:101F2000052B05D8DFE803F0780403780720A246E4
:101F300023781C44ECE7E378002BF9D1A37883B134
:101F400009F101095FFA89F9F2E77268944200F039
:101F50009D8024369E42F8D34FF0FF3005B0BDE897
:101F6000F08F4F4E4F4BF5E7002EF5D000230121A7
:101F7000327F9342F0D2326AA77802EBC302107923
:101F8000874201D00133F3E70127E07894F805C0D8
:101F900000F003008DF80C00207940EA0C20ADF829
:101FA0000A0094F9020000285FFA87F828DA07F19E
:101FB000100001FA00F010EA0B0F29D168F07F0041
:101FC0008DF8080002A8CDE9003208F02AF8DDE912
:101FD00000320121E0B99DF80830A37013F0800FA2
:101FE0001CBF08F110085FFA88F813710B4615BF83
:101FF00001FA08F8BB404BEA080B4BEA030B97E7E2
:1020000001FA07F010EA0B0F02D18DF80880D9E72A
:102010000137102FB9D1B5E7032D1DD1FFF72AFFE6
:10202000074668B107F0A1FF804648B11E4807F097
:102030009CFF804504D142463946A01C07F0B1FF01
:1020400023786FF00201E218091B04EB5303D1421D
:1020500013D50135EDB26BE7002DF1D1BAF1000FC8
:102060003FF47AAFA4EB0A038AF80230C3F30723E4
:102070008AF803308AF80490EBE74FF0000002F88A
:10208000010C13F8010902F8020DE0E7B368002B18
:102090003FF456AF49462046984751E77506002061
:1020A000780600209C06002068DB010008B5044883
:1020B000FFF724FF0028024818BF002008BD00BF1A
:1020C000D005002010B5094B00211A461C78844227
:1020D00004D15C6814B102EB811010BD01310429F8
:1020E00003F14003F2D10020F7E700BFC40A00204B
:1020F0002DE9F34150F8283C10F82C6C10330446BD
:1021000010D1036950F8202C99073CD502BB13F07D
:10211000040304D11A461946304607F0EFFD0023A8
:1021200044F8283C54F8283C10330ED054F8185C7E
:102130005DB154F81C7C54F8148C0AF088FE002819
:102140004CD02E4821460AF060FF02B0BDE8F08175
:1021500050F8241C01AB304607F0D0FD10B16FF0F1
:102160001503DDE7019A54F8243C134444F8243C59
:1021700054F8203C9B1A44F8203C54F81C3C13446F
:1021800044F81C3CCEE750F8241C01AB304601F06B
:10219000FBFC0028E3D1019D54F8243C2B4444F877
:1021A000243C54F8203C5B1B44F8203C54F81C3C75
:1021B0002B4444F81C3C002DB1D0304601F088FD82
:1021C000B5FBF0F303FB1055002DA8D154F8203CCB
:1021D000002BA4D0304601F01FFDA3E744F8180CF3
:1021E000A4F1100006F022FA54F8283C8C33ACD04D
:1021F000424639463046A847A7E700BFA006002060
:102200004B1E012B73B506460D460FD8FFF75AFF3C
:10221000044668B9012D09D101AB01220DF103017A
:10222000304601F0B1FC019B002BF5D102B070BD2E
:102230000AF00DFE04F12C0108B1012D05D108466C
:1022400002B0BDE87040FFF753BF034802B0BDE8DD
:1022500070400AF0DABE00BFA00600202DE9F74F5B
:10226000064601911546984607F090FD0446002861
:102270005CD14FF02003EFF3118A83F31288BFF390
:102280006F8FDFF8B0B0A70100220023584606F098
:10229000EDF968B9DFF8A09009EB0704636813F162
:1022A000100F14D10193584606F0C0F9019B06E0C7
:1022B0000134042C0BF1400BE5D16FF00B038AF3D2
:1022C0001188BFF36F8F184603B0BDE8F08F019BF4
:1022D0002061C4E902350C9B63610D9BA3616FF023
:1022E0000F03C4F83C806360304609F8076001F0D2
:1022F000EFFC58B1304601F0EBFCB5FBF0F202FB0D
:1023000010551DB1E36B43F00403E36318F0020FB3
:1023100007D02C37094809EB07010AF076FE0023A5
:10232000CDE7304601F078FC0346C8E76FF00F03B5
:10233000C9E700BFE00A0020C40A0020A006002070
:1023400010B54FF02003EFF3118483F31288BFF32D
:102350006F8FFFF7B7FE50B14368103307D16FF0AE
:102360008B03436000F12C0103480AF04EFE84F316
:102370001188BFF36F8F10BDA00600202DE9F0413A
:10238000104CDFF8448004256FF08B074FF02003DA
:10239000EFF3118683F31288BFF36F8F63681033F6
:1023A00005D104F12C01404667600AF02EFE86F349
:1023B0001188BFF36F8F013D04F14004E6D1BDE801
:1023C000F08100BFC40A0020A006002070B50A4CAE
:1023D0000A4E0025314620460AF00EFE0122A4F1E5
:1023E0001000114601350AF0CAFD042D04F1400425
:1023F000F0D1002070BD00BFF00A0020F1200100E4
:10240000F8B505460F4601791848164607F09AFCBC
:10241000044640B395F900206B78002A1BDB202B83
:1024200004D0222B13D06FF085001EE050F80C5D15
:102430003168072207F0B5FD54F80C1CA94204D0FE
:1024400054F86C3C0BB12068984700200DE06B8875
:1024500000F8053CF9E7212BE5D1A0F10C04072396
:1024600034603B60F1E76FF01200F8BDC40B002050
:102470000169012381F82F300B6833B191F82D30B9
:102480001BB1024808310AF0C0BD7047A006002009
:102490000169012381F82E300B6833B191F82C309B
:1024A0001BB1024808310AF0B0BD7047A0060020F9
:1024B000012310B582F82C30136814463BB192F812
:1024C0002E3023B1084802F108010AF09EFD636F27
:1024D0001A699B689A4206D004F11C010248BDE8C3
:1024E00010400AF092BD10BDA006002038B5056965
:1024F00095F8820070B195F8833063B985F82C3077
:10250000686F07F088FB05F11C01044603480AF0D8
:102510007CFD204638BD0020FCE700BFA00600205F
:1025200013B504698DF8071094F882308BB194F8D4
:10253000833073B90DF10701606F84F82C300122EC
:1025400007F069FB014630B10A4804F11C010AF0AA
:102550005CFD02B010BD606F012207F0AEFB0028E9
:10256000F7D0606F01220DF1070107F054FB00283E
:10257000EAD1EEE7A006002008B50146034807F0BF
:10258000EFFB10B1012300F8033C08BDC40B002091
:102590000B4A03460021A0F88210818510689867D5
:1025A00090889279A3F87C0083F87E2083F88010CD
:1025B00083F87F10402203F1300007F0FDBC00BF1C
:1025C000A0D7010073B5144602F130060A1E054675
:1025D00010DD206F314607F01EFB012384F82D30FB
:1025E00023683BB194F82F3023B1084804F1080167
:1025F0000AF00BFD064B0093019401234022314663
:102600002846FFF72BFE02B070BD00BFA0060020D9
:10261000C52501007FB5836E5B681B6A1E7D05467C
:10262000304607F0B3FBD0B9A86D4FF4806203A920
:1026300007F010FB044690B18306A5F11C0308BF08
:1026400000F1FF340193074B0399009322460223C4
:102650003046FFF703FEA86D214607F01AFB04B0D1
:1026600070BD00BFB124010038B50D4601462448B5
:1026700007F05CFB044680B30246691E52F88439B9
:102680005B68052929D8DFE801F0202803202529E7
:1026900014F8021C31B91B6A187BFFF793FF012362
:1026A00004F8023C14F8583CBBB9012304F8583C28
:1026B00054F8843C8BB114F8563C73B1A4F17C01FE
:1026C0001048BDE838400AF0A0BCBDE838401046CC
:1026D000FFF75EBF012304F8013C38BD14F8011C6C
:1026E0000029FAD014F8020C002104F8011C00287B
:1026F000F3D01B6A187BBDE83840FFF763BF00BF0B
:10270000C40B0020A006002010B504690023C4F803
:1027100088300C4BC4F88400596804F1880269B908
:10272000C3E9002204F1080007490AF065FC04F13E
:102730001C0006490AF060FC002010BD0A605A60C7
:10274000F0E700BFC40B0020B79D01001526010073
:1027500030B585B0A12305698DF804302023426887
:102760008DF80530002385F881300220ADF80A008D
:10277000106AADF80C10ADF808300079ADF80630ED
:102780000A2201A907F0BAFA054C95F8813023B95D
:1027900001200AF09FFD013CF7D105B030BD00BF1C
:1027A000A186010037B5094D0949002400944FF076
:1027B000FF334FF48062284606F066F80549284644
:1027C0000AF04BFB204603B030BD00BFA00600203E
:1027D000401A002083DB01002DE9F84305464FF045
:1027E0002003EFF3118683F31288BFF36F8F0E4B34
:1027F0001C689CB10D4FDFF838804FF00C09D4E90C
:102800000132002D08BF13462BB198F8142009FBA4
:1028100002F2B85C98472468002CF0D186F3118846
:10282000BFF36F8FBDE8F883CC0B0020D40B0020E2
:10283000881900204209012300F01F0003FA00F06C
:10284000074BBFF35B8FC04303EB820353E8002FBA
:10285000024043E800210029F8D1BFF35B8F7047A5
:10286000E00B002038B51A4B1C7DBFF35B8F04F0E2
:102870001F0301229A40174B6109D04303EB8103E8
:1028800053E8001F01EA000543E8005CBCF1000FBB
:10289000F6D1BFF35B8F114213D00F4B0F4D8BB1AD
:1028A0000C236343EA18E85C517807F09DFB002095
:1028B000FFF792FF0C235C432A1900232B51C2E936
:1028C000013338BD83F31188BFF36F8FEFE700BF8B
:1028D00088190020E40B0020E99F0100D40B0020A0
:1028E0002DE9F843324B334A1C7DBFF35B8F6309FC
:1028F0004FEA830952F823302F4EBFF35B8F04F069
:102900001F0843FA08F313F0010F07460AD10146E6
:10291000204600F05BF828B107C80C2303FB0463D2
:1029200083E807000C236343F218F55C2DB92046B9
:10293000FFF780FF2846BDE8F8837B1C0FD0D2F854
:1029400008C01E481E4A4FF4004500210023ECFB3E
:102950000501FDF7A3FF0121381A0AF09DFC06F0DE
:1029600053F80120FFF738FFBFF35B8F012303FA11
:1029700008F8144B994459E8003F43EA080349E832
:102980000032002AF7D1BFF35B8F0F4B33B10C231A
:102990006343F218F05C517807F01AFBFFF762FF0F
:1029A0002046FFF747FF06F0FFF90120C3E700BF0D
:1029B00088190020E00B0020D40B00203F420F00BC
:1029C00040420F00E40B0020D19F01002DE9F04FA1
:1029D00085B00E4603A900F041F8039B01931C4B00
:1029E000DFF87080D3F800A0441E24B24FF40047F3
:1029F0004FF0000B631C04D10025284605B0BDE84C
:102A0000F08F019B144A04EB440503EB8505C44693
:102A100068685946E0FB07C100236046FDF73EFFAA
:102A20008146A8680C4AC4465946E0FB07C100230A
:102A30006046FDF733FFBAF1FF3F01D0824504D96C
:102A4000721CDAD04844B042D7D9013C24B2D1E755
:102A5000E80000203F420F0040420F0008B9024B3F
:102A60000B600020704700BF0CD801000149102204
:102A70000A60704710ED00E072B6404080F31188A4
:102A8000BFF36F8FBFF34F8F30BF62B6BFF36F8F4F
:102A9000704700BF72B6494081F3118820BF80F3B0
:102AA000118862B6704700BF43B2002B08DB0122D9
:102AB00000F01F0002FA00F05B09024A42F823000E
:102AC000704700BF00E100E043B2002B0DDB0122A4
:102AD0005B0900F01F0002FA00F02033034A42F8BD
:102AE0002300BFF34F8FBFF36F8F704700E100E00B
:102AF000054B420900F01F0053F82220012303FA7E
:102B000000F01040704700BF00E100E043B2002B2E
:102B1000A8BF03F1604301F10101B8BF064B4FEAC2
:102B20004111ACBF03F5614300F00F00C9B2B4BF5F
:102B3000195483F80013704714ED00E030BFFFF71D
:102B4000FDBF00BF0F4A08B50F4B22F07F029A600D
:102B5000BFF34F8FBFF36F8FD3F8882022F470023A
:102B6000C3F88820EFF3148323F0040383F314885D
:102B7000BFF36F8F05F09EFA06F04AFA00F0D0F925
:102B800005F0DCFA0000010000ED00E0094A0A4906
:102B9000936809689967094958674B6843F08053FF
:102BA0004B60002383F31188BFF36F8F9368986F96
:102BB000704700BF88190020C8DA010000ED00E06E
:102BC00012498A684FF030001044EFF3098C80E816
:102BD000F01F202080F31288BFF36F8F0C4F4FF04F
:102BE0000066CA698A603E60506F0023536780F3B5
:102BF000118804B5104600F0D9F9BDE8044002F18F
:102C0000300090E8F01F8CF3098870478819002085
:102C100004ED00E01EF0040F0CBFEFF30880EFF3AB
:102C20000980816911F8021C0229FFD001B507F063
:102C300083F901BD42F8203C009B42F81C3C0A4944
:102C4000019B42F8183C029B42F8143C21F0010120
:102C50004FF0807342F8043C42F8081C0023203AED
:102C600002654367704700BF59970100094A034650
:102C7000906870B113F1160F406E05D0A0F14002BC
:102C80009A4205D8834203D2814228BF0020704770
:102C9000002070478819002008B5094B98600D4640
:102CA000144600F083F9204685F30988002163B6B5
:102CB00081F31188BFF36F8F0022002306F04CFDD3
:102CC0008819002001B572B60B4A906900281EBF12
:102CD000002191610AF0C6F862B6EFF30580A0F119
:102CE00010004FEAC0000549014409C99847BDE8F2
:102CF000014003490847000088190020C8D5010099
:102D0000052D0100044B9968D869884203D0034916
:102D10004FF080520A6070478819002004ED00E0EF
:102D200038B51C4B14469A6A9A6A9A6A0546900707
:102D300020D5586B9A6A12061CD519B19A6A22F0EE
:102D400080029A629A6A9A6A9A6AD20615D49B6A33
:102D50009B0712D400200F4B9A6A920642BF5A6A10
:102D600022F400525A629A6A42F0FF029A620023E9
:102D7000237038BD6FF01500E4E7064B5B6819055A
:102D8000E8D52946FFF772FF0028E3D080F30988D1
:102D90000220E0E700ED00E00D4B9A6A9A6A9A6A19
:102DA000920508D59A6B9A6A120404D518B19A6AEA
:102DB00022F400429A62064B9A6A9A6AD20558BF78
:102DC0009A6A9A6A002042F47F429A6208707047B9
:102DD00000ED00E070B5484B5B688AB00D46C3F368
:102DE0000803002686F31188BFF36F8F02F07F413E
:102DF000B1F17F4F11D102F00C0108290DD011075C
:102E000001D4054601260022033B8DF80720032B41
:102E10006BD8DFE803F00455595D3546F3E7364BD0
:102E2000DC6A14F0020460D1DA6A002A15DBDA6A7F
:102E3000520012D5AA6932F8021C4DF60272914274
:102E40000AD093F828200AB30DF107020121284681
:102E5000FFF766FF044600E02C689DF807309BB939
:102E60002022294602A807F09CF8099B002E3ED09C
:102E7000C3F3080222B96FEA53236FEA432309938D
:102E800002A9204607F056F80AB070BD93F8292031
:102E90002AB10DF107010120FFF77EFFDAE75A8D15
:102EA00092B2002AD9D09A6A9A6A9A6A9A6A9A6AF7
:102EB0009A6A9A6A6FEA02426FEA12429A62CCE711
:102EC0000DF107020021C2E70DF107010020E3E741
:102ED000094B9A6A9A6A9A6A9A6A9A6A9A6A9A6A82
:102EE0006FEA02426FEA12429A620024B5E723F4C5
:102EF000FF7323F00103C2E700ED00E0024A5369CB
:102F000043F010035361704700ED00E0EFF30880D9
:102F1000EFF3098101B57246FFF75CFF01BD00BF09
:102F2000044800232021C2180133302B82F80013FB
:102F3000F9D1704700E100E00AF068FA202080F340
:102F4000118808484FF40461401880F30988EFF3B2
:102F500014800221084380F31488BFF36F8FFFF7BA
:102F6000F1FD000080280020084B9B6883420BD1B4
:102F7000EFF3058343B1064B5A6842F080525A6022
:102F80005A6A22F400425A6205F0DEBF8819002016
:102F900000ED00E0024B034A0348012100F06EB847
:102FA00000000420000000200CD80100426E054BF8
:102FB000403A1A60044A4021C3E90112184601212F
:102FC00000F066B8E80B002000000B15F0B51F4FAD
:102FD00000268E4201DB1046F0BD44689CB353B11D
:102FE00004F1FF3C14EA0C0F18D11F2C16D9056808
:102FF0001CEA050F12D1202C0568D0F808C0D2B207
:103000000FD9B4F1004F0ED8013CB4FA84F4C4F1E6
:103010001F046400072A4CEA040406D96FF0150265
:10302000D9E70824F6E73E24F4E725F01F05154309
:1030300045F0100544F00104C7F89820C7F89C50EB
:103040000132C7F8A04001360C30C2E700ED00E0C5
:10305000044B0522C3F89420BFF34F8FBFF36F8F4B
:10306000704700BF00ED00E0BFF35F8F024B00220E
:10307000C3F89420704700BF00ED00E010B5034C8A
:1030800001232278FFF7A2FF207010BDDA1900207B
:1030900008B5094A00231278FFF798FF10F1160FC0
:1030A00002D0064A072800DD08BDC2F89800C2F821
:1030B000A0300130F6E700BFDA19002000ED00E093
:1030C00014490868082810B521D8FFF7CDFF124C25
:1030D00049680022904201F10C0105D10F4B187094
:1030E000FFF7B6FF002010BDC4F8982051F80C3C43
:1030F00023F01F03134343F01003C4F89C3051F82E
:10310000043C43F00103C4F8A0300132E2E74FF081
:10311000FF30E8E718D8010000ED00E0DA190020E0
:10312000014B1860704700BFEC0000204FF02002F8
:10313000EFF3118382F31288BFF36F8F044A0121EA
:10314000C2F8401583F31188BFF36F8F00207047DA
:1031500000E0014020B1034B800143F00103184718
:10316000704700BFB0D7010010B50B4C204609F0E6
:1031700010FE68B12269A168136823F0010313608F
:1031800020460B68BDE810404FF40022002118478C
:103190006FF0120010BD00BFF0D4010000F07F03FB
:1031A000082B42B204D010F0780F01D000207047F5
:1031B000002A00F00F0300F0080005DA58B90848AB
:1031C00000EB43104C30704738B9054800EB431012
:1031D00000F5B6707047034870470348704700BF5A
:1031E000F411002040130020601400200146014823
:1031F00009F0BABEC00500200149024809F005BF28
:103200001C1200204007002013B50B4802F094FD6B
:1032100000240A4802F0D6FD4FF0FF334FF48062DD
:1032200007490848009405F02FFB0749074809F0B3
:10323000E3FE204602B010BD9EDB010038D801003D
:10324000801E002040070020653501001C12002070
:1032500002480022002305F0B5B900BFC0050020D8
:1032600010B5054CFFF7F4FF20B1011D204609F011
:10327000C5FDF7E710BD00BF9005002007B500238E
:103280000E48002201A904F0E5FF90B1FFF7E8FF26
:103290000A480022002301A904F0DCFF38B9019894
:1032A000042340600374FFF7A1FFFFF7A5FF002090
:1032B00001E00198406003B05DF804FB9005002038
:1032C000817870B506460846FFF768FF0B06F5786B
:1032D000044612D5002D43D1FFF7D0FF0346002846
:1032E0003ED00122A5770274032202739C60FFF78F
:1032F0007DFFBDE87040FFF77FBF4DB1012D2FD19D
:10330000FFF7BCFF034658B3657705740573EDE717
:10331000FFF7B4FF20B3B278124B12F0800F02F027
:10332000080111D041B1D3F8A836E360012303743A
:10333000022303738460DAE702F00F02142101FB19
:103340000233D3F80836F0E711B1D3F8A837ECE729
:1033500002F00F02142101FB0233D3F80837E4E72F
:1033600070BD00BF00700240022810B511D8094B93
:103370001C5CFFF783FF60B1002202740472FFF748
:1033800035FF054B93F824301BB1BDE81040FFF723
:1033900033BF10BD9BDB0100F411002010B50F49B5
:1033A000BFF35B8F01F12003002253E8000F0128D7
:1033B00003D143E80024002CF7D1BFF35B8F0BD17E
:1033C000CC690C31204606F07FF9783004D12046D4
:1033D000BDE8104006F053B910BD00BFF411002045
:1033E000F0B5064689B01422002103A806F0E4FDDA
:1033F0003378013B052B21D8DFE803F07A0314145E
:103400006A1603238DF814300024FFF737FF0346B4
:10341000A0B1047400F10802DDE9050182E80300AF
:1034200018461DE00423EDE7B1780846FFF7B6FE25
:10343000837A044623B1013B022B43D909B0F0BD86
:103440000B06F57813D5002DF8D1FFF717FF0346CB
:103450000028F3D00122A5770274032202739C6036
:10346000FFF7C4FE09B0BDE8F040FFF7C5BE55B197
:10347000012DE3D1FFF702FF03460028DED0657778
:1034800005740573EBE7FFF7F9FE07460028D5D072
:103490000123037402230373846004F10C01B078E8
:1034A00007F095FD134AE168B2F88C328B4206D9D9
:1034B0005B1AA2F88C3203F0ADFE3846D0E7A2F8D2
:1034C0008C52FAE7304609B0BDE8F040FFF7F8BE8D
:1034D00001A803F079FE9DF80530052B04D19DF875
:1034E000043013F0600FA9D0034B059301248CE73F
:1034F00002248AE7F41100206013002038B500246C
:1035000064F07F00C0B2FFF749FE013406F072FD9F
:10351000082CF5D10F4D0024E0B2FFF73FFE036900
:1035200003B90561013406F065FD082C05F140057D
:10353000F2D1094C04F5A67006F05CFDD4F87C329B
:1035400013B9064BC4F87C32054806F053FD002041
:1035500038BD00BFF40F0020F4110020F40B002050
:10356000601400202DE9F043A84CDFF8A48285B058
:103570000746FFF76DFE10B905B0BDE8F08394F87B
:103580002530027C00F104093BB9002A00F0868056
:103590004946404609F032FCEBE7042AF8D8DFE858
:1035A00012F07D000500030119014301037B8568CA
:1035B000032BEDD8DFE803F0023D5A5F6E69082265
:1035C0000021304606F0F8FC924B9348D3F8802453
:1035D0003270D3F884247270D3F88824D3F88C1412
:1035E00042EA01227280D3F89024D3F8941442EA7C
:1035F0000122B280D3F89824D3F89C3442EA032302
:103600000822F3803146EA6006F0CBFC2B68687A2A
:103610000021984796F90030002B06DBF38823B190
:10362000A4F88C3203F0F6FDB2E70023A4F88C3244
:10363000AEE76B7F002BABD02B7F002BA8D00026F2
:103640006E774FF0FF3275482E774FF0FF3306F05C
:10365000E4FC6B6901936B68CDE9023601A9687AD5
:1036600003F0E2FB6D4806F0DAFC91E72B680121DC
:10367000687A98478CE7AB7A6BB9EB7F5BB96748A0
:103680004FF0FF324FF0FF3306F0C7FC03F0F2FDBE
:10369000624806F0C4FC2B680221E9E7027A042A9A
:1036A0003FF676AFDFE802F05B032569750003F0B3
:1036B0006BFB054600287FF46BAF03F0A9FABFF35C
:1036C0005B8F5749012351E8002F002A03D141E8BD
:1036D00000300028F7D1BFF35B8F7FF459AF41F87A
:1036E000105C41F8085CE0696361143905F07EFF05
:1036F0004EE7002565F07F00C0B2FFF74FFD037A6B
:1037000013B1407A03F0A2FF0135082DF2D194F8ED
:1037100054311BB194F8550103F098FF0025E8B22D
:10372000FFF73CFD037A13B1407A03F08FFF0135B8
:10373000082DF4D194F874321BB194F8750203F09B
:1037400085FF012003F002FB012384F82530236864
:10375000002B3FF41DAF00210220984718E70025F9
:1037600084F8255003F0FEFEFFF718FE2368002BB7
:103770003FF40EAF29460420EFE7002B3FF408AFDB
:1037800003F008FF2368002B3FF402AF002105205F
:10379000E3E72268002A3FF4FBAE002B3FF4F8AECB
:1037A000002106209047F3E607F110054FF0FF33A4
:1037B0004FF0FF32284606F030FCFFF79FFE284608
:1037C00006F02DFC57F8283C002B3FF4E1AE002119
:1037D0000120C2E794F874327BB1012584F8895244
:1037E00084F88852FFF74AFD38B10E4A0574057314
:1037F0008260FFF7FBFCFFF7FFFC57F8283C002B2B
:103800003FF4C6AE00210A20A7E700BFF411002054
:103810009005002000700240F81100202C120020BA
:10382000141200206014002007F0DEFA03F09AFE64
:1038300003F0E4F9FFF714FDFFF760FE07F0CDFA9F
:10384000014803F0ABFAA3E6E133010038B51A4DA5
:1038500095F824405CBB05F1380009F012FB2046C6
:1038600000F038FB2246E86101212720FFF74EF9DE
:10387000124803F093FA124B98421AD107F0ADFAAE
:10388000FFF73CFE044610B9012385F824300D4BA8
:103890001B680BB1FFF7B0FC4FF08043D3F838340E
:1038A000DB0702D50020FFF75FFD204638BD00246E
:1038B000FBE76FF00404F8E7F4110020E1330100A6
:1038C0000000AD0BC0050020074B93F824203AB14F
:1038D00093F82530002B0CBF6FF0120000207047CA
:1038E0006FF01200704700BFF41100200F4B93F8E7
:1038F000243010B50146B3B104782046FFF74EFCE2
:1039000010B96FF0150010BD44720B7983724988AD
:103910004160230702D44B1E0B42F2D1204607F030
:1039200051FB0020EFE76FF01200ECE7F4110020EC
:10393000124B93F8242010B50146CAB193F82530F4
:10394000B3B1FFF72BFC0446A8B1837A012B12D048
:1039500007D9023B012B07D96369A3610020E0600E
:1039600010BD03F08FFCF7E7084603F0FFFBF3E719
:103970006FF01200F4E76FF01500F1E7F41100208A
:1039800038B50E4B93F82420054682B193F82530C4
:103990006BB1FFF703FC68B115F008040AD12846A3
:1039A00003F006FC284603F0A3FE204638BD6FF066
:1039B0001200FBE76FF01500F8E700BFF4110020DC
:1039C00038B50C4B93F8242005460C4662B193F8A9
:1039D00025304BB1FFF7E2FB48B141B1284603F077
:1039E000CDFB2070002038BD6FF01200FBE76FF0B8
:1039F0001500F8E7F4110020F8B5134F97F82430BC
:103A00000446BBB1FFF7CAFB0546B0B1230705D496
:103A1000204603F0CDFB204603F06AFE2E7A7EB9E5
:103A200097F8250001232B7218B1204603F00EFEF3
:103A30003046F8BD6FF01200FBE76FF01500F8E7B5
:103A40006FF07700F5E700BFF411002038B5114B97
:103A500093F8242001469AB193F8253083B1FFF7FB
:103A60009DFB054678B1037A83B10846002403F034
:103A7000C1FD2846AC7706F0BDFA2C72204638BD51
:103A80006FF01200FBE76FF01500F8E76FF07700BA
:103A9000F5E700BFF41100202DE9F043DFF8DC80EA
:103AA0001C4698F8243085B0074689461646002BF8
:103AB0005DD098F82530002B59D003065AD5FFF772
:103AC0006DFB0546002855D0037A002B52D04FF0ED
:103AD000FF334FF0FF3208F1380006F09EFAAB7F5B
:103AE0004BB108F1380006F09AFA6FF00A0420464C
:103AF00005B0BDE8F08316B9EB7F03B1EE77AB7A82
:103B0000BBB95EB1B8F80A30B34207D96A68B6FBF0
:103B1000F2F302FB13630BB90123EB7703F0BAFB5B
:103B2000B84206D003F0A6FB154806F078FA002448
:103B3000DDE70123AB774FF0000801A93846CDE956
:103B40000196CDF80C8003F06FF90E4B984207D028
:103B500085F81E800CB1C4F800806FF0040402E008
:103B60000CB126604446064806F059FABFE76FF0EC
:103B70001204BCE76FF01504B9E700BFF411002090
:103B80002C1200200000AD0B2DE9F0411D46204B0A
:103B9000174693F824200E46002A33D093F8253098
:103BA00083B3030631D401B97FBBFFF7F7FA0446AC
:103BB00058B3037A4BB34FF0FF3316484FF0FF3240
:103BC00006F02BFAE3689F42B84628BF984646B9EC
:103BD0003FB905B12B600F4806F021FA0020BDE87F
:103BE000F081A1694246304606F0DBF9A3694344FF
:103BF000A361E368A3EB0803E360002DEBD0C5F8F5
:103C00000080E8E76FF01200E9E76FF01500E6E7E3
:103C1000F41100202C12002070B51E4D95F82420C0
:103C2000034682B395F825206AB31B062ED4FFF70E
:103C3000B5FA044650B3037A43B34FF0FF334FF065
:103C4000FF3205F1380006F0E8F9E368B3B9012660
:103C500063692677A361637F83B1FFF70FFB30B9F8
:103C600005F1380006F0DBF96FF00B0070BD06744B
:103C700084600673FFF7BAFAFFF7BEFA064806F04B
:103C8000CEF90020F2E76FF01200EFE76FF01500B9
:103C9000ECE700BFF41100202C12002008B5084BFF
:103CA00093F824302BB1FFF779FA28B10160002096
:103CB00008BD6FF01200FBE76FF01500F8E700BFDA
:103CC000F4110020014B1860704700BFF411002070
:103CD00008B5074B93F8243023B1FFF75FFA20B102
:103CE000406808BD6FF01200FBE76FF01500F8E7C1
:103CF000F4110020084B70B5C31A0D4607499B10FC
:103D0000044659430648402206F0CEF92B460146A8
:103D10002046BDE87040184794140020B76DDBB60C
:103D2000C0D4010073B50C4C0C4A4023041B009313
:103D30000D460B460A49A41061430646094806F0A1
:103D4000DFF9011E05DA30462B4602B0BDE87040AF
:103D5000184702B070BD00BF9414002071A101008B
:103D6000B76DDBB6C0D40100002270B50121044656
:103D70001046FEF7CBFE0F4801F028FC0E4B984290
:103D800015D101F033FC26690C49304605F01BFCC7
:103D900000280BDB246909490125356404F11C0066
:103DA00005F011FC002801DBE564002070BD6FF018
:103DB0000400FBE7F53D01000000AD0B64D80100F5
:103DC00001460C2309484B4370B5C418D4E90E567C
:103DD00000224033A263184406F053F92DB1324655
:103DE0002B460348BDE87040184770BD941400206E
:103DF000C0D4010010B1012804D07047034B1B6CE4
:103E00005B0701D1FFF7DCBF704700BF94140020AF
:103E100008B54FF02003EFF3118183F31288BFF34D
:103E20006F8F124A136843F0020013F00103106011
:103E30000CD04FF08042D2F80C34D2F80C2413F09E
:103E4000010303D00A4806F01CF9012381F311880D
:103E5000BFF36F8F23B1BDE808400020FFF7B0BF6C
:103E6000BDE80840012006F017BF00BFE4140020A1
:103E7000D41400201FB500220123CDE90223094AF2
:103E8000CDF800D06B46CDF804D006F06AF90028D2
:103E900005DB4FF480420023684604F0E7FB05B0E1
:103EA0005DF804FB8FA10100094BBFF35B8F53E862
:103EB000002F22F0020143E800100028F7D1BFF3E1
:103EC0005B8FD30702D4012006F023BF704700BFE9
:103ED000E4140020024AC3B21C2003FB00207047F8
:103EE000941400202DE9F0413949BFF35B8F074658
:103EF000012251E8003F41E800200028F9D1BFF33A
:103F00005B8F33B9334934484B60CB608A6005F02E
:103F10006DFB7B1E012B2FD8012F07D14FF0804363
:103F2000D3F81C3403F00303012B25D008F08FFFD6
:103F3000044618B9294B1B78002B41D14FF02003C0
:103F4000EFF3118683F31288BFF36F8F0124DFF83C
:103F500090804FF08045D5F81834D5F81824D20356
:103F60000CD503F00303012B01D0012F06D10CB3B4
:103F700086F31188BFF36F8FBDE8F081ACB1304696
:103F8000FEF788FDD5F81835002BE4D1D5F80421CB
:103F9000002AE0D0C5F80431D5F804310123C5F872
:103FA0001835C8F88031AB60D5E70021212004F036
:103FB000ABFFE7E74FF080430222C3F80423DBE7BF
:103FC0004FF080430222C3F808230646BFE700BF34
:103FD000E814002084140020B0140020031A0020EC
:103FE00000E100E008B5084B0848186008F0D1FE71
:103FF00038B10748FFF794F80548FCF773FE002036
:1040000008BD6FF01200FBE7EC14002008D501009A
:10401000154001000A2838B5074D044604D1286828
:1040200083680D215B68984728688368E1B25B6804
:104030009847204638BD00BFEC14002030B54068DA
:10404000047B01F01F05B2F5001F45EA441585B059
:104050004FF0000404D1284601F04CFD002032E06E
:10406000B2F5800FCDE902442FD1B3F1007F0CBF30
:10407000042305238DF80830836823FA01F1C9076A
:104080002FD4B2F1A07F2CD16A09012A05F01F03B9
:104090001C4A03F5E07318BF4FF0A04252F82330DA
:1040A000DB071ED40DF107042146284601F086FCEB
:1040B000154B984214D1204601F0CEFC134B984288
:1040C0000ED06FF00B0005B030BDB3F1C06F05D05E
:1040D000B3F1007F0CBF02230123CBE70323C9E721
:1040E00003940023194602AA284601F041FB074B1E
:1040F000984204D10121284601F0B4FCAEE76FF0EC
:104100000400E0E7000300500400AD0B0000AD0B1D
:1041100010B501F091FC044668B901F065FC084B4C
:1041200098420AD10748214601F042FC2246052167
:104130000620FEF7EBFC002010BD6FF00400FBE74B
:104140000000AD0B49410100420970B5034602D0A1
:10415000012A15D070BD0B4E326951680029F9D083
:1041600003F01F0301250C689D408A682A4002D095
:104170004B6830469847002CECD021462468F4E781
:10418000014EE9E7D8D40100F0D401002DE9F04355
:1041900047683B7B01F01F0585B00E4645EA431595
:1041A0001446CAB902A9284601F008FC044628466C
:1041B00001F0C8FC4A4B984204D06FF0040005B0EF
:1041C000BDE8F083844205D19DF8080001F03EFC73
:1041D000A042F2D10020F2E74FF000090DF10301F7
:1041E0003046CDE9029901F0E9FB4B46804602AA30
:1041F0004946284601F0BCFA394B984202D06FF08C
:104200001500DCE7804503D19DF8030001F01EFC9A
:10421000A30351D540F20663234040F206229342A5
:104220003BD00CD8062B15D004D89BB1022BE6D17D
:1042300004230FE0B3F5007FE1D101230AE040F24F
:10424000024293422BD0B3F5C06F2AD0B3F5806FF2
:10425000D5D102238DF8043084F48033C3F30043B6
:10426000E0068DF8053054BFC4F340130323210347
:104270008DF8063017D57B68012101FA06F6C3F8E0
:104280000865002201A9284601F020FB144B984242
:1042900014BF6FF01500002091E70723DAE705232C
:1042A000D8E70323D6E7620341BF7B68012101FA07
:1042B00006F6C3F80C65E4E7E3064FF0000354BFCD
:1042C000C4F3401403241A4601A928468DF804407B
:1042D00001F04EFA024B98423FF47CAF8FE700BFEB
:1042E0000000AD0B08B50369D3E9080103F01EFA1D
:1042F000034B984214BF6FF00F00002008BD00BFB1
:104300000000AD0B10B50469084A4068234604F16B
:10431000200102F01DF8064B984203BF012384F8E8
:10432000303000206FF0040010BD00BF35430100A5
:104330000000AD0B0378012B08D0022B08D04BB93D
:10434000054B4B6301F1100004F070B9034BF8E723
:10435000034BF6E7034BF4E70000AD0B0100AE0B97
:104360000200AE0B0100AD0B2DE9F04F4768066966
:1043700089B0984605463B8900930C469346002138
:10438000142203A8D6F8389005F016FE96F83030BF
:104390008DF80D80BBB14FF0FF324FF0FF33304648
:1043A00004F064F906F1100A00220023504604F0DC
:1043B0005DF9384602F02EF84FF000084546D84522
:1043C00009D3002451E02846FFF79CFF0028E2DAD9
:1043D0006FF004044FE0217A0A0700F18F8008F1A2
:1043E0000108D84562680AD28B0708D4237D81EA88
:1043F000030000F0010003F00403034316D0BDB135
:104400000023DDF800C0A81860457AD8C80706D494
:104410002168019309EB050005F0C3FD019B62686B
:104420001544ADB2002B37D00C34C8E70123E8E7C0
:10443000C90724D523680693636804930025237A6B
:1044400003F0010213F0020F8DF80C2003A90CBF3A
:1044500020220022384602F04FF82E4B984221D0FD
:104460000B33984253D06FF00404384601F0E2FF5A
:10447000304604F0DBF8204609B0BDE8F08F216833
:1044800001F06043B3F1005FD4D07B8993423BD30A
:10449000484605F086FDA588002DCBD0CDF81890B4
:1044A0000495CCE74FF480420023504604F0DEF838
:1044B00038B1384601F0BEFFD6E9080103F036F9FD
:1044C000D1E7736B134A9342CDD1237ADB0701D432
:1044D0000025A9E7069B9945FAD1234608E0A91AC9
:1044E000D86801938DB219FA81F105F05AFD019B4C
:1044F0005A689542A3F10C03F1D2E9E76FF0850405
:10450000B3E76FF01B04B0E76FF01504ADE76FF091
:104510000F04AAE70000AD0BF0B50569AB6C2C6D7C
:1045200085B07BB99CB900221146284606F0F9F8FF
:104530002C6305F1200004F079F8002385F85C3045
:1045400005B0F0BD002C35D09C4228BF1C46696CDC
:10455000466879B173B101F06043B3F1005F09D0EF
:10456000082C28BF082405F15E072246384605F0CE
:1045700018FD3946B2686B6C0091944228BF14460E
:10458000AC651BB1AB6C002B18BF23460193EB6CE1
:1045900002931BB12B6D002B18BF234600226946E6
:1045A0003046039301F080FD034B9842C8D06FF072
:1045B0000404B8E71C46CAE70000AD0B2DE9F04F34
:1045C0001F468B880469814698048BB00D4690463F
:1045D00000F1D4804FF0FF324FF0FF3304F11000B0
:1045E00004F044F86560D9F804B0D9F810A0DBF8FD
:1045F0000C3003939AF85D3001931BB1DAF8003068
:104600009D426DD0AE88310500F1ED8016F0090FA6
:1046100040F0E680C6F34513082B40F0E1802B689C
:104620000293029A7B4B9A4240F2DA800BF1100E11
:10463000BEE80F000DF1140CACE80F00DEF80030FE
:10464000CCF80030DDE90223934228BF1346724ABA
:10465000934240F29C80714A934240F29B80704AA0
:10466000934240F29A806F4A934240F299806E4A98
:10467000934240F298806D4A9342C0F097806C4A12
:104680009342C0F096806B4A934234BF4FF0206350
:104690004FF0A053B207079306F0040340F18C805B
:1046A000002B14BF032302238DF82030019BC6F397
:1046B00000168DF821602BB1584601F0ADFC0023A7
:1046C0008AF85D3053465C4A05A9584601F0E2FB82
:1046D0005A4B984274D101238AF85D30CAF80050D1
:1046E000012384F85C30B8F1000F7FD1C4F8348026
:1046F0004246A26304F1380104F1480204F1340097
:1047000005F0EAFF6064002F79D1E763276404F1C4
:10471000500204F1400104F13C0005F0DDFF0026E9
:104720003246E06401212046266305F0FAFF484640
:10473000FFF7F2FE256DA36C27469D4238BF1D464C
:104740004FF4FA535D4357F8203B4FF4004C1B687D
:10475000B5FBF3F53146C83540F2E7304FF47A72D5
:104760000023E5FB0C01FCF799F802460B4638469E
:1047700003F07CFF002849D1256B23E0A369002BBF
:104780007FF428AF636899427FF424AF2BE74FF0A2
:1047900000737FE74FF080637CE74FF0006379E7B9
:1047A0004FF0805376E74FF0005373E74FF08043AC
:1047B00070E74FF000436DE7003B18BF012373E73C
:1047C0006FF0040523689B8813F4005304D16360E1
:1047D00004F1100003F02AFF28460BB0BDE8F08F6B
:1047E0006FF01505EEE76FF08505EBE7D8F80020D0
:1047F0006263002A3FF47DAFD8F8042079E73B6874
:10480000E3630BB17F6881E71F467FE76FF07305B5
:10481000D8E700BF47E801008FD003001FA10700C1
:104820003F420F007F841E00FF083D0000127A0007
:104830000024F4000048E8015FA801000000AD0B6F
:1048400038B5056908490446284640F8044B04F089
:10485000BAFE064905F1200008F0F9FB606806F091
:10486000B2F800EAE07038BDD0D9010031AA0100E9
:104870002DE9F0471C1E05460F46904610DB7AB125
:104880004FEA5249D6030023144A30464946FCF702
:1048900005F810B1124B1B7843B9404608F01AFDD9
:1048A0002146281D3B46BDE8F04718470D480B4AF6
:1048B0002F6530184FF0030349F1000185F854309B
:1048C0000023FBF7EBFF02460B4605F1200004F046
:1048D0003DF8041EE4DBBDE8F08700BF40420F0056
:1048E000031A00203F420F00054BD3F81C312BB9AF
:1048F000044B1878003818BF01207047012070471A
:1049000000200040FC190020074BD3F8082142B1D9
:104910000020C3F80801D3F80821D3F818350B702C
:1049200070474FF0FF30704700200040024BD3F833
:104930008004C3F8800470470020004070B5002355
:10494000094C1E46D8B2151A002D03DDD4F80851C3
:10495000013305B970BDC4F80861D4F80851D4F822
:1049600018550D54EEE700BF002000400E4B00220A
:104970001A700E4B01229A608022C3F804234FF074
:104980002002EFF3118382F31288BFF36F8F084A7E
:1049900012781AB1074A0421C2F8001183F3118872
:1049A000BFF36F8F704700BFFB190020002000404D
:1049B000FC19002000E100E0014B01221A70704751
:1049C000FB190020024B0422C3F80423704700BFE8
:1049D00000200040024B0422C3F80823704700BFA8
:1049E00000200040034BD3F80801003818BF012015
:1049F000704700BF00200040024B4FF40072C3F824
:104A00000423704700200040024B4FF40072C3F8AB
:104A10000823704700200040024B1960024B1A60C7
:104A2000704700BF901600209416002008B5074B71
:104A3000D3F8040310F0800004D0054B1B7813B9A1
:104A4000FFF752FF08BD0020FCE700BF0020004038
:104A5000FB1900200B4A08B5D2F804331B0605D415
:104A6000D2F8040310F0040006D108BDFFF7DEFF02
:104A70000028F5D00120F8E7D2F80801003818BF67
:104A80000120F2E7002000400E4A0F4B117851B18F
:104A9000D3F81C1139B18021C3F808130121D96062
:104AA000002313707047D3F8242122B10022C3F8E9
:104AB0002421D3F82431054B1B6813B1044A116833
:104AC00018477047FB190020002000409016002076
:104AD0009416002030B54B79012B22D0032B1DD129
:104AE00010258B79032B19D1CB79BBB90A7912B177
:104AF000022A13D10E220B68B3F5164F61D02DD8C0
:104B0000B3F5165F5FD016D8B3F5966F5DD00AD8AF
:104B1000B3F5967F5CD0B3F5167F5CD06FF085005F
:104B20004EE00025DDE7B3F5166F57D0B3F5965F7D
:104B3000F4D1344B39E0B3F5E14F52D007D8B3F597
:104B4000615F50D0B3F5964FE8D12F4B2DE047F67B
:104B50001224A342E2D14FF4000326E0B3F5613FF3
:104B600044D011D8B3F5963F42D008D84DF6C024B2
:104B7000A3423FD0B3F5614FD0D1244B15E0B3F53C
:104B8000E13FCBD1224B10E0B3F5612F35D007D8F0
:104B9000204CA34233D0B3F5E12FBFD11E4B04E02C
:104BA0001E4CA342BAD14FF0805304691C482A43DB
:104BB000C0F82435C0F86C2503C984E80300002040
:104BC00030BD184BF1E7184BEFE74FF49E23ECE7AD
:104BD0004FF4A033E9E74FF41C33E6E74FF41D230D
:104BE000E3E7124BE1E74FF46C13DEE7104BDCE731
:104BF000104BDAE74FF46503D7E70F4BD5E74FF0DB
:104C00008063D2E700B0130000A04E0000F0EB007C
:104C100000E0D70190D0030000705F0740420F0012
:104C20000020004000509D000050270000F075005B
:104C300000B0AF0300903A0100D0BE0E2DE9F34161
:104C40004368194D1F68D0F8108000210646C5F84A
:104C5000001501AA384605F072FF041E1FDB019BF8
:104C60003A681979186805F087FF041E17DB41467A
:104C70003046FFF72FFF044688B90423C5F80035F6
:104C8000C5F80801D5F80831084B01212960024612
:104C900002201970FDF73AFF0220FDF705FF2046BC
:104CA00002B0BDE8F08100BF00200040FC190020E8
:104CB000F8B50E4608F0CBF81B4D90BB64240127D5
:104CC000BFF35B8F55E8003F002B03D145E800722E
:104CD000002AF7D1BFF35B8F07D021200021013CD0
:104CE00004F012F914F0FF04EAD1104B0022C3F8CB
:104CF0001C21D3F81C110E490A7001229A604FF44E
:104D00007A74C3F81C65FFF7EFFD20B9012005F0A8
:104D1000C1FF013CF7D1054B0122DA6000232B6073
:104D2000F8BD01232B60E0E798160020002000402A
:104D3000FC1900202DE9F04100240C4EDFF83080F2
:104D40002746E5B2531B002B03DDFFF7CDFD0134F1
:104D500010B92846BDE8F081C6F81C71D6F81C31A0
:104D60004B5D88F80070C6F81C35EAE7002000406B
:104D7000FC19002010B501238340114ABFF35B8F5B
:104D8000DC4352E8001F01EA040C42E800CEBEF109
:104D9000000FF6D1BFF35B8F4FF4803202FA00F0C0
:104DA00002F1804202F58052C2F80803BFF35F8F20
:104DB000BFF36F8F0B4214BF0120002010BD00BF56
:104DC000A01600201949F8B5044622F07F4508686E
:104DD000C1E90023A5F50013101AB3F5400F22D244
:104DE000134B1B681A0A1B065E19124B42F100078F
:104DF000C3E90067012604F0E9F9A30003F1804349
:104E000003F58833D3F84025AA420BD11EB94FF4DD
:104E10000002C3F84025084B4FF4803000FA04F438
:104E2000C3F84443F8BD0026E5E700BF5008002062
:104E3000A4160020380800200010014019B3BFF369
:104E40005B8F0123104A834052E8001F194342E858
:104E5000001CBCF1000FF7D1BFF35B8F0B4A4FF47E
:104E600080338340C2F80433094BBFF35B8F1B6868
:104E7000BFF35B8F23FA00F0C30742BF054B4FF42B
:104E80000032C3F800217047A01600200010014036
:104E90009C16002000E100E00D4B1868010A000696
:104EA000BFF35F8F0B4BD3F80435181841F10001A5
:104EB000B3F5801F0AD2084BD3E90023904271EB6F
:104EC000030303D210F1807041F10001704700BF6D
:104ED000A416002000100140380800202DE9F04FF2
:104EE00085B0164698460546FFF744FF0090FFF749
:104EF000D3FFB04271EB080378D2464B301A68EB0F
:104F00000101984271F1000380F08180424B03EB74
:104F10000513D3E902ABD84508BF564551D04FEA37
:104F2000850909F1804905F1500709F58839BF0065
:104F30004FF4803101FA05F3BFB226F07F4207F14A
:104F400080470193D9F84005344B07F5883714465C
:104F5000D3F80415401A20F07F4021F07F4C01283F
:104F6000C9F840C507D1CDE90221132008F0B2F9F4
:104F7000DDE90221294B01F1020CA4EB0C0020F029
:104F80007F40B0F5000F88BF644600203860386865
:104F90000198C3F8440324F07F40C9F84005D3F8D2
:104FA0000405814206D0201A023820F07F40B0F577
:104FB000000F19D8A41A24F07F4414EB060A48F114
:104FC000000B15490E982B0101EB0512C2E902AB4B
:104FD000C8500F9B5360002428460099FFF72EFF0E
:104FE000204605B0BDE8F08F2046B1E701230C4A0A
:104FF000BFF35B8FAB4052E8001F194342E800103B
:105000000028F8D1BFF35B8FB246C346D9E76FF0F3
:105010001504E1E7010000014008002000100140F4
:105020009C16002073B5194B194D00244FF0FF302A
:105030004FF0FF31C5F80845C3E902014FF4803352
:10504000C5F80433134B02264FF400320121C5F892
:1050500004631120C3F880212246FDF757FD11207B
:10506000FDF722FD0C4A0123AB602B6013600B4B54
:105070000B4A0093019400232046FFF72FFF304690
:10508000FEF730FF204602B070BD00BF4008002090
:105090000010014000E100E0A0160020C54D010015
:1050A000FFFF7F002DE9F743354CD4F804339A070E
:1050B0000BD5D4F8043143B1324A0023C4F804318B
:1050C000D4F804311368013313604FF02003EFF379
:1050D000118283F31288BFF36F8FD4F80433DB039C
:1050E00012D5BFF35B8F284B53E8001F21F001005E
:1050F00043E80006002EF7D1BFF35B8F002936D1BD
:10510000D4F84031002B32D1002382F31188BFF351
:105110006F8F4BB3FFF7C0FE4FF02003EFF3118CFE
:1051200083F31288BFF36F8F184BD3E90267B04245
:1051300071EB07024FF0000220D34FF0FF384FF021
:10514000FF39D3E90015C3E902891A604FF48033AF
:10515000C4F848338CF31188BFF36F8F21B10095E9
:1051600032463B460020884703B0BDE8F083002369
:10517000C4F84031D4F840310123C6E71146E9E7CD
:1051800000100140A41600209C16002040080020BA
:10519000431C13B521D0012821DDB0F5000F20DA22
:1051A000441EFFF779FE104BD3E90013401AB0F507
:1051B000000F28BF0024013002190C48824228BF8A
:1051C000024652184FF0000009490190009143F146
:1051D0000003FFF783FE02B010BD0448E0E700249F
:1051E000DFE7024CDDE700BF50080020FFFF7F0033
:1051F000C54D010008B5FFF74FFE024B1B68C01AF2
:1052000008BD00BF5008002000F01F014009012820
:10521000044B4FF0010218BF4FF0A0438A40C3F87F
:105220000C2570470003005000F48053002B30B56C
:1052300007BF14460D4601240025C0F3811200F07B
:105240001F0110F0200F00F4706040EA8202064B4C
:1052500042EA050208BF4FF0A04301F5E07142EABF
:10526000440243F8212030BD0003005000F01F012C
:1052700040090128044B4FF0010218BF4FF0A04332
:105280008A40C3F808257047000300504FF0805350
:10529000D3F83021082A06D1D3F83431052B02D8AF
:1052A000024AD05C70470020704700BFE2DB01007B
:1052B000024AD2F80034002BFBD0704700E00140D6
:1052C00010B505F0DDFC40B14FF080430022C3F87B
:1052D0000C21C3F81021C3F8382505F0D1FC0028B3
:1052E00046D04FF08052604BD2F80414C3F820151A
:1052F000D2F80814C3F82415D2F80C14C3F82815F2
:10530000D2F81014C3F82C15D2F81414C3F83015C1
:10531000D2F81814C3F83415D2F81C14C3F8401589
:10532000D2F82014C3F84415D2F82414C3F8481551
:10533000D2F82814C3F84C15D2F82C14C3F8501521
:10534000D2F83014C3F85415D2F83414C3F86015E9
:10535000D2F83814C3F86415D2F83C14C3F86815B1
:10536000D2F84014C3F86C15D2F84424C3F8702561
:10537000FFF78CFF18B13D4B3D4AC3F88C26FFF771
:1053800085FF18B13B4BFB22C3F81825FFF77EFFC2
:1053900070B14FF080414FF08053D1F8E42ED3F834
:1053A000583222F00F0203F00F031343C1F8E43E1A
:1053B000FFF76CFF20B1304B4FF40072C3F840266A
:1053C00005F05EFC48B14FF08043D3F80024D207CB
:1053D00044BF6FF00102C3F800244FF08053D3F8AC
:1053E0003021082A0ED1D3F83431052B02D8234AB4
:1053F000D35C3BB14FF01023D3F808224FF0804329
:10540000C3F858254FF01023D3F80022002A03DBFD
:10541000D3F80432002B22DA194901234FF010206F
:10542000C1F804351224FFF743FFC0F80042FFF72C
:105430003FFFC0F80442FFF73BFF0023C1F80435EB
:10544000FFF736FFBFF34F8F0E490F4BCA6802F4C8
:10545000E0621343CB60BFF34F8F00BFFDE70B4B00
:105460000B4A1A6010BD00BF00C000400050004051
:105470004881030000F0004000900240DCDB0100A6
:1054800000E0014000ED00E00400FA05E801002022
:105490000090D00370B501250268B2FA82F3C3F11F
:1054A0001F035E1CDCB214D0BFF35B8F05FA03F35D
:1054B00022EA030350E8006F964204D140E8003C22
:1054C000BCF1000FF6D1BFF35B8FE5D102480C7041
:1054D00070BD0248FCE700BF0000AD0B0200AD0B41
:1054E0000368CB40DB0710B515D4012303FA01F1A3
:1054F0000368BFF35B8F41EA030250E8004F9C4210
:1055000004D140E8002CBCF1000FF6D1BFF35B8F53
:10551000EED1024810BD0248FCE700BF0000AD0B11
:105520000400AD0BF7B5044618B1012829D003B02B
:10553000F0BD4FF080430222C3F80823C3F80401F2
:10554000D3F804210122DA6001239C428DF8073050
:1055500014BF00250DF1070542F210774FF0804689
:10556000D4B1012CE3D125B1D6F80C3403F00103FA
:105570002B70D6F80C34DB0318D4134B00225A716D
:10558000D5E74FF080430022C3F80803C3F8002199
:10559000D3F800215860D7E725B1D6F8183403F0C6
:1055A00003032B60D6F81834DA03C0D52DB90120D7
:1055B00005F070FB013FD3D103E09DF80730012BCC
:1055C000F5D0012CD9D0B2E7A8160020044B1A79E7
:1055D00022B9012218609A80024870470248704739
:1055E000A81600200000AD0B0C00AD0B08B5002084
:1055F000FDF77EFA08B9FDF757FA4FF08043002215
:10560000C3F81825014B01221A7008BDFD190020AE
:105610004FF0804310B5D3F800216AB10022C3F8DF
:105620000021D3F800210122C3F80823114B587937
:1056300010B95A711B6898474FF08043D3F8042182
:1056400072B10022C3F80421D3F80421D3F818243E
:10565000D3F81814920704D10122C3F818259A60D0
:1056600010BD0222C3F80823024BBDE810401B689E
:1056700001201847A8160020036803F01F025B09E9
:10568000012B0260024818BF4FF0A040704700BFD6
:1056900000030050034B083033F81000C0F34010F3
:1056A000704700BFEC01002070B500F108030C4CFE
:1056B00034F81330DA0505460E4607D5C3F3432305
:1056C00004EBC30254F8333052689847A3682BB1F7
:1056D000E26831462846BDE87040184770BD00BFFB
:1056E000EC010020124A083010B432F81030D9050D
:1056F0001BD5C3F3432123F4F85322F8103002F1F1
:105700001004002034F8023B13F4807F03D0C3F36D
:105710004323994209D001303028F3D1002342F8C5
:105720003130044810BCFFF7DBBE10BC704700BF2F
:10573000EC0100206002002038B50246FFF7AAFF06
:10574000094C02F1080540B134F8153007495B0BEC
:1057500003F5A273002041F823001046FFF7C2FFB3
:10576000002324F8153038BDEC0100200060004013
:105770002DE9FF41044617461D4621B34E4E00F168
:10578000080836F818309B0706D5FFF783FF18B1D5
:105790004A4804B0BDE8F0810023CDE900338DF81C
:1057A0000E308DF80F300DF10F020B4620460DF133
:1057B0000E0105F0B0FA36F8183023F0020343F07A
:1057C000010326F8183097B13B4B3E787A6804F114
:1057D000080033F810108F070CD5002AD8D133F801
:1057E000102022F01C0242EA860223F81020CDBBD2
:1057F0003348CEE721F02001C904C90C23F810106A
:10580000002AECD0032EC3D817782EB92D4A07F5FD
:10581000A27142F82160E2E7BA0002F1804202F58B
:10582000C04241EA4731D2F810C52CF0030CC2F84F
:1058300010C5D2F810C52CF44F3C2CF4407CC2F8B3
:1058400010C5D2F810E54FEA042C0CF47C5C4EEA4B
:10585000064E4CEA0E0C41F0200123F81010C2F85D
:1058600010C5BCE7D5E900672046FFF73BFF002ED7
:10587000BED0114D2B689E4204D16B689F4201D16E
:1058800000220AE010480DF10F01FFF703FE0C4B58
:1058900098427FF47EAF9DF80F2045F8326005EB0B
:1058A000C20308345F6035F8143043EA422343F4FE
:1058B000807325F814309BE7EC0100200400AD0B49
:1058C0000000AD0B0060004060020020F0B504460F
:1058D00085B0154619B3334E00F1080736F8172086
:1058E000930703D4FFF7D6FE002858D112F01C0FFF
:1058F00002D04B78012B52D001238DF80F300023BA
:10590000CDE900134A1C8B1C20460DF10F0105F058
:1059100002FA36F8173043F0030326F8173015B9AA
:10592000214805B0F0BD1F4E04F1080736F81700F6
:10593000830734D595F800C06146890020F0200027
:1059400001F18041C00401F5C041C00C26F81700E8
:105950000023C1F810356A78002AE1D0D1F810355B
:10596000AD7823F4991323F4F853C1F81035D1F826
:1059700010E5230203F47C53120402F4403243EA9C
:105980000E0313432A0502F4801240EA4C301343FD
:1059900040F0200026F81700C1F81035C0E7034892
:1059A000BFE700BFEC0100200000AD0B0400AD0B11
:1059B000014BC3E902017047EC01002008B5024623
:1059C000FFF768FE38B1054B0548083233F812304E
:1059D0005B0B0B7008BD0348FCE700BFEC01002027
:1059E0000000AD0B0400AD0B38B50F4C94F87850A7
:1059F000BDB96022294604F1100004F0DDFA06204A
:105A0000FDF752F8094B0A48C3F87C51D3F87C21C2
:105A10004FF00042C3F80423012384F87830636711
:105A200038BD0448FCE700BFEC01002000600040E6
:105A30000000AD0B0500AD0B034B93F87800003868
:105A400018BF0120704700BFEC010020014601484B
:105A5000FFF746BD5C02002001460148FFF71ABD72
:105A60005C02002037B50446FFF714FE04F108027B
:105A70001E4B33F81230E8B113F002051AD15B0B5C
:105A80009A0002F1804000F5C24002F1804202F526
:105A9000C04205600068D2F8100540F00100C2F86D
:105AA000100529B1012202FA03F3114AC2F80433A6
:105AB00003B030BDC3F38203042B12D0052B12D0E8
:105AC00001A80194FFF7D8FD019BD0F81015D9402B
:105AD00001F001010231204603B0BDE8304005F07D
